:100000000C9432000C943C000C943C000C943C008A
:100010000C943C000C943C000C943C000C943C0070
:100020000C943C000C943C000C943C000C943C0060
:100030000C943C000C943C000C943C000C943C0050
:100040000C943C000C943C000C943C000C943C0040
:100050000C943C00CF02D202D502D802DB02DE02B1
:10006000E102E40211241FBECFE5D8E0DEBFCDBF20
:100070000E943E000C9440040C940000CF93DF9348
:10008000CDB7DEB7E4970FB6F894DEBF0FBECDBF95
:100090000E9440020E944B020E9456020E948B0264
:1000A0000E949D020E94AF020E94610266E081E010
:1000B0000E94C1026CE381E090E00E94FF0300E037
:1000C0000F2EFCE33F2EF02D1AAA212CCE01019613
:1000D0009AA789A76E0199E2C90ED11C29A52BAB5D
:1000E0008AA58CAB1EA61FA618AA19AA011112C0B8
:1000F0000E9497020E94A9020E94BB020E94720203
:100100000E944602813091F70E9446028130E1F35D
:1001100001E0ECCF013009F0D9C00BC094E14916E1
:1001200051046104710491F44EA45FA468A879A8F5
:100130000DC0812C912CA12CB12C1BA61DA6412CED
:10014000512C612C712C0CA7E32CF12C86E00E9421
:10015000C6028433910520F48C011695079511C0D1
:100160009C01245331092A34310530F49695879542
:100170008C010150110905C0969587958C0102509C
:1001800011090E946C02802F0E947802F401EE0F88
:10019000FF1FEE0FFF1F81E090E08C0F9D1FE80F07
:1001A000F91FC801A0E0B0E080839183A283B383EC
:1001B00099E089169104A104B10409F035C18EA417
:1001C0009FA4A8A8B9A8EBA9FCA96EA57FA588A99A
:1001D00099A9DC01CB010191119121913191800FFD
:1001E000911FA21FB31FEC15FD05A9F7BC01CD019E
:1001F0002AE030E040E050E00E941804C701821B72
:10020000930B853091053CF00E9491020E94A90257
:1002100021E02DA715C08C3F9F4F3CF40E94970210
:100220000E94A3020E94B50204C10E9497020E948C
:10023000A9020E94BB02FDC08BA5813009F0FEC05F
:100240009AE0491651046104710428F40E94B50231
:1002500021E02BA704C00E94BB0281E08BA79FEF87
:1002600021EE84E0915020408040E1F700C0000082
:100270000E944602813031F40E9446028130E1F34F
:100280000AA901C00CA50E945102182F0E945C020D
:10029000113041F0813061F405C00E945102182FE5
:1002A0000E945C021130C9F38130B9F302E01ECF25
:1002B0009FEF891A990AA90AB90A2FEF421A520A1E
:1002C000620A720A013009F429CF10CF023009F016
:1002D0000DCF9AC081E090E00E940B04082F0E948D
:1002E0006C02802F0E9478028FEF91EE24E0815003
:1002F00090402040E1F700C000000E94460281309B
:1003000031F40E9446028130E1F3AAA8ADC00E94F8
:100310005102813009F0A2C00E9451028130E1F304
:100320000B5F0C3408F00BE4602F81E090E00E943A
:10033000FF030E945C02813079F40E945C028130EC
:10034000E1F30550033208F403E2602F81E090E00E
:100350000E94FF03122D01C0122D8FEFE81AF80A38
:100360009AE0E916F10409F0B5CFAB2C7DC00E94EC
:1003700072022FEF81EE94E0215080409040E1F72F
:1003800000C000000E944602813039F4302E0E94E5
:1003900046028130E1F300E041C00E945102813009
:1003A00009F068C00E9451028130E1F30B5F0C3408
:1003B00008F00BE4602F81E090E00E94FF030E94B0
:1003C0005C02813079F40E945C028130E1F30550D7
:1003D000033208F403E2602F81E090E00E94FF0303
:1003E000122D01C0122D2FEFE21AF20A8AE0E81650
:1003F000F10409F0BCCF1F5F153070F492E0A9162C
:1004000029F0302E0A2D0AC010E0B02EE12CF12C7C
:1004100061CF302E01E002C0302E0A2D81E00111A3
:1004200001C080E0082F62CE2DA5213009F004CF55
:10043000CACE8AA98BA791E09DA711CF2FEF81EE9D
:1004400094E0215080409040E1F700C000000E94FD
:100450004602813009F410CF0CA515CF0E945C0232
:10046000813009F07ACF69CF1F5F153090F6E12C0B
:10047000F12C7DCF0E945C02813009F0B4CFA3CF74
:1004800040E060E081E00E94EF02089560E081E0DA
:100490000E94D103089540E066E083E00E94EF02ED
:1004A000089566E083E00E94D103089540E062E091
:1004B00083E00E94EF02089562E083E00E94D1038E
:1004C000089582B341E061E00E94EF0282B341E00F
:1004D00063E00E94EF02089541E061E083E00E9442
:1004E0006003089540E061E083E00E9460030895A6
:1004F0009DEC899F912D1124969596959695392F6F
:10050000330F232F220F220F230F821B8295807F10
:1005100088BB9BBB089541E062E082E00E94EF024D
:10052000089541E062E082E00E946003089540E0A7
:1005300062E082E00E946003089541E067E082E0AB
:100540000E94EF02089541E067E082E00E946003AC
:10055000089540E067E082E00E946003089541E072
:1005600063E083E00E94EF02089541E063E083E0EE
:100570000E946003089540E063E083E00E9460030E
:10058000089580E487B987EA86B9089590E08830B5
:100590009105E8F4FC01E65DFF4F0C943A0480E419
:1005A00087B917C081E487B914C082E487B911C044
:1005B00083E487B90EC084E487B90BC085E487B9AA
:1005C00008C086E487B905C087E487B902C080E423
:1005D00087B9369A349BFECF84B195B108954423F0
:1005E00019F04130C9F10895813091F028F082303E
:1005F000D9F0833029F108952AB381E090E002C058
:10060000880F991F6A95E2F7809582238ABB089527
:1006100027B381E090E002C0880F991F6A95E2F746
:100620008095822387BB089524B381E090E002C0C7
:10063000880F991F6A95E2F78095822384BB0895FD
:1006400021B381E090E002C0880F991F6A95E2F71C
:100650008095822381BB0895813089F028F0823013
:10066000C9F0833011F108952AB381E090E002C00F
:10067000880F991F6A95E2F7822B8ABB089527B3EA
:1006800081E090E002C0880F991F6A95E2F7822B03
:1006900087BB089524B381E090E002C0880F991FC2
:1006A0006A95E2F7822B84BB089521B381E090E044
:1006B00002C0880F991F6A95E2F7822B81BB0895CB
:1006C000442319F04130C9F10895813091F028F0A8
:1006D0008230D9F0833029F108952BB381E090E086
:1006E00002C0880F991F6A95E2F7809582238BBB21
:1006F000089528B381E090E002C0880F991F6A95A1
:10070000E2F78095822388BB089525B381E090E0CD
:1007100002C0880F991F6A95E2F78095822385BBF6
:10072000089522B381E090E002C0880F991F6A9576
:10073000E2F78095822382BB0895813089F028F00A
:100740008230C9F0833011F108952BB381E090E03D
:1007500002C0880F991F6A95E2F7822B8BBB089520
:1007600028B381E090E002C0880F991F6A95E2F7F4
:10077000822B88BB089525B381E090E002C0880FEA
:10078000991F6A95E2F7822B85BB089522B381E019
:1007900090E002C0880F991F6A95E2F7822B82BB16
:1007A0000895813079F028F08230A9F08330E1F0AB
:1007B00024C089B390E002C0959587956A95E2F7C9
:1007C0008170089586B390E002C0959587956A95EB
:1007D000E2F78170089583B390E002C09595879504
:1007E0006A95E2F78170089580B390E002C0959514
:1007F00087956A95E2F78170089580E00895E19900
:10080000FECF811524E0920728F49FBB8EBB6DBB01
:10081000E29AE19A0895E199FECF811524E09207CA
:1008200028F49FBB8EBBE09A8DB3089580E00895B5
:10083000A1E21A2EAA1BBB1BFD010DC0AA1FBB1FE4
:10084000EE1FFF1FA217B307E407F50720F0A21B56
:10085000B30BE40BF50B661F771F881F991F1A94C3
:1008600069F760957095809590959B01AC01BD01ED
:10087000CF010895EE0FFF1F0590F491E02D09942C
:04088000F894FFCF1A
:00000001FF
